{
  "_format": "hh3-artifact-1",
  "contractName": "MyNFT",
  "sourceName": "contracts/MyNFT.sol",
  "abi": [
    {
      "inputs": [],
      "stateMutability": "nonpayable",
      "type": "constructor"
    },
    {
      "inputs": [
        {
          "internalType": "address",
          "name": "sender",
          "type": "address"
        },
        {
          "internalType": "uint256",
          "name": "tokenId",
          "type": "uint256"
        },
        {
          "internalType": "address",
          "name": "owner",
          "type": "address"
        }
      ],
      "name": "ERC721IncorrectOwner",
      "type": "error"
    },
    {
      "inputs": [
        {
          "internalType": "address",
          "name": "operator",
          "type": "address"
        },
        {
          "internalType": "uint256",
          "name": "tokenId",
          "type": "uint256"
        }
      ],
      "name": "ERC721InsufficientApproval",
      "type": "error"
    },
    {
      "inputs": [
        {
          "internalType": "address",
          "name": "approver",
          "type": "address"
        }
      ],
      "name": "ERC721InvalidApprover",
      "type": "error"
    },
    {
      "inputs": [
        {
          "internalType": "address",
          "name": "operator",
          "type": "address"
        }
      ],
      "name": "ERC721InvalidOperator",
      "type": "error"
    },
    {
      "inputs": [
        {
          "internalType": "address",
          "name": "owner",
          "type": "address"
        }
      ],
      "name": "ERC721InvalidOwner",
      "type": "error"
    },
    {
      "inputs": [
        {
          "internalType": "address",
          "name": "receiver",
          "type": "address"
        }
      ],
      "name": "ERC721InvalidReceiver",
      "type": "error"
    },
    {
      "inputs": [
        {
          "internalType": "address",
          "name": "sender",
          "type": "address"
        }
      ],
      "name": "ERC721InvalidSender",
      "type": "error"
    },
    {
      "inputs": [
        {
          "internalType": "uint256",
          "name": "tokenId",
          "type": "uint256"
        }
      ],
      "name": "ERC721NonexistentToken",
      "type": "error"
    },
    {
      "inputs": [
        {
          "internalType": "address",
          "name": "owner",
          "type": "address"
        }
      ],
      "name": "OwnableInvalidOwner",
      "type": "error"
    },
    {
      "inputs": [
        {
          "internalType": "address",
          "name": "account",
          "type": "address"
        }
      ],
      "name": "OwnableUnauthorizedAccount",
      "type": "error"
    },
    {
      "anonymous": false,
      "inputs": [
        {
          "indexed": true,
          "internalType": "address",
          "name": "owner",
          "type": "address"
        },
        {
          "indexed": true,
          "internalType": "address",
          "name": "approved",
          "type": "address"
        },
        {
          "indexed": true,
          "internalType": "uint256",
          "name": "tokenId",
          "type": "uint256"
        }
      ],
      "name": "Approval",
      "type": "event"
    },
    {
      "anonymous": false,
      "inputs": [
        {
          "indexed": true,
          "internalType": "address",
          "name": "owner",
          "type": "address"
        },
        {
          "indexed": true,
          "internalType": "address",
          "name": "operator",
          "type": "address"
        },
        {
          "indexed": false,
          "internalType": "bool",
          "name": "approved",
          "type": "bool"
        }
      ],
      "name": "ApprovalForAll",
      "type": "event"
    },
    {
      "anonymous": false,
      "inputs": [
        {
          "indexed": true,
          "internalType": "address",
          "name": "previousOwner",
          "type": "address"
        },
        {
          "indexed": true,
          "internalType": "address",
          "name": "newOwner",
          "type": "address"
        }
      ],
      "name": "OwnershipTransferred",
      "type": "event"
    },
    {
      "anonymous": false,
      "inputs": [
        {
          "indexed": true,
          "internalType": "address",
          "name": "from",
          "type": "address"
        },
        {
          "indexed": true,
          "internalType": "address",
          "name": "to",
          "type": "address"
        },
        {
          "indexed": true,
          "internalType": "uint256",
          "name": "tokenId",
          "type": "uint256"
        }
      ],
      "name": "Transfer",
      "type": "event"
    },
    {
      "inputs": [
        {
          "internalType": "address",
          "name": "to",
          "type": "address"
        },
        {
          "internalType": "uint256",
          "name": "tokenId",
          "type": "uint256"
        }
      ],
      "name": "approve",
      "outputs": [],
      "stateMutability": "nonpayable",
      "type": "function"
    },
    {
      "inputs": [
        {
          "internalType": "address",
          "name": "owner",
          "type": "address"
        }
      ],
      "name": "balanceOf",
      "outputs": [
        {
          "internalType": "uint256",
          "name": "",
          "type": "uint256"
        }
      ],
      "stateMutability": "view",
      "type": "function"
    },
    {
      "inputs": [
        {
          "internalType": "uint256",
          "name": "id",
          "type": "uint256"
        }
      ],
      "name": "burn",
      "outputs": [],
      "stateMutability": "nonpayable",
      "type": "function"
    },
    {
      "inputs": [
        {
          "internalType": "uint256",
          "name": "tokenId",
          "type": "uint256"
        }
      ],
      "name": "getApproved",
      "outputs": [
        {
          "internalType": "address",
          "name": "",
          "type": "address"
        }
      ],
      "stateMutability": "view",
      "type": "function"
    },
    {
      "inputs": [
        {
          "internalType": "address",
          "name": "owner",
          "type": "address"
        },
        {
          "internalType": "address",
          "name": "operator",
          "type": "address"
        }
      ],
      "name": "isApprovedForAll",
      "outputs": [
        {
          "internalType": "bool",
          "name": "",
          "type": "bool"
        }
      ],
      "stateMutability": "view",
      "type": "function"
    },
    {
      "inputs": [
        {
          "internalType": "address",
          "name": "to",
          "type": "address"
        }
      ],
      "name": "mint",
      "outputs": [
        {
          "internalType": "uint256",
          "name": "",
          "type": "uint256"
        }
      ],
      "stateMutability": "nonpayable",
      "type": "function"
    },
    {
      "inputs": [],
      "name": "name",
      "outputs": [
        {
          "internalType": "string",
          "name": "",
          "type": "string"
        }
      ],
      "stateMutability": "view",
      "type": "function"
    },
    {
      "inputs": [],
      "name": "owner",
      "outputs": [
        {
          "internalType": "address",
          "name": "",
          "type": "address"
        }
      ],
      "stateMutability": "view",
      "type": "function"
    },
    {
      "inputs": [
        {
          "internalType": "uint256",
          "name": "tokenId",
          "type": "uint256"
        }
      ],
      "name": "ownerOf",
      "outputs": [
        {
          "internalType": "address",
          "name": "",
          "type": "address"
        }
      ],
      "stateMutability": "view",
      "type": "function"
    },
    {
      "inputs": [],
      "name": "renounceOwnership",
      "outputs": [],
      "stateMutability": "nonpayable",
      "type": "function"
    },
    {
      "inputs": [
        {
          "internalType": "address",
          "name": "from",
          "type": "address"
        },
        {
          "internalType": "address",
          "name": "to",
          "type": "address"
        },
        {
          "internalType": "uint256",
          "name": "tokenId",
          "type": "uint256"
        }
      ],
      "name": "safeTransferFrom",
      "outputs": [],
      "stateMutability": "nonpayable",
      "type": "function"
    },
    {
      "inputs": [
        {
          "internalType": "address",
          "name": "from",
          "type": "address"
        },
        {
          "internalType": "address",
          "name": "to",
          "type": "address"
        },
        {
          "internalType": "uint256",
          "name": "tokenId",
          "type": "uint256"
        },
        {
          "internalType": "bytes",
          "name": "data",
          "type": "bytes"
        }
      ],
      "name": "safeTransferFrom",
      "outputs": [],
      "stateMutability": "nonpayable",
      "type": "function"
    },
    {
      "inputs": [
        {
          "internalType": "address",
          "name": "operator",
          "type": "address"
        },
        {
          "internalType": "bool",
          "name": "approved",
          "type": "bool"
        }
      ],
      "name": "setApprovalForAll",
      "outputs": [],
      "stateMutability": "nonpayable",
      "type": "function"
    },
    {
      "inputs": [
        {
          "internalType": "bytes4",
          "name": "interfaceId",
          "type": "bytes4"
        }
      ],
      "name": "supportsInterface",
      "outputs": [
        {
          "internalType": "bool",
          "name": "",
          "type": "bool"
        }
      ],
      "stateMutability": "view",
      "type": "function"
    },
    {
      "inputs": [],
      "name": "symbol",
      "outputs": [
        {
          "internalType": "string",
          "name": "",
          "type": "string"
        }
      ],
      "stateMutability": "view",
      "type": "function"
    },
    {
      "inputs": [
        {
          "internalType": "uint256",
          "name": "tokenId",
          "type": "uint256"
        }
      ],
      "name": "tokenURI",
      "outputs": [
        {
          "internalType": "string",
          "name": "",
          "type": "string"
        }
      ],
      "stateMutability": "view",
      "type": "function"
    },
    {
      "inputs": [
        {
          "internalType": "address",
          "name": "from",
          "type": "address"
        },
        {
          "internalType": "address",
          "name": "to",
          "type": "address"
        },
        {
          "internalType": "uint256",
          "name": "tokenId",
          "type": "uint256"
        }
      ],
      "name": "transferFrom",
      "outputs": [],
      "stateMutability": "nonpayable",
      "type": "function"
    },
    {
      "inputs": [
        {
          "internalType": "address",
          "name": "newOwner",
          "type": "address"
        }
      ],
      "name": "transferOwnership",
      "outputs": [],
      "stateMutability": "nonpayable",
      "type": "function"
    }
  ],
  "bytecode": "0x608060405234801561000f575f5ffd5b50336040518060400160405280600a815260200169105d58dd1a5bdb93919560b21b815250604051806040016040528060048152602001631053919560e21b815250815f908161005f9190610194565b50600161006c8282610194565b5050506001600160a01b03811661009c57604051631e4fbdf760e01b81525f600482015260240160405180910390fd5b6100a5816100ab565b5061024e565b600680546001600160a01b038381166001600160a01b0319831681179093556040519116919082907f8be0079c531659141344cd1fd0a4f28419497f9722a3daafe3b4186f6b6457e0905f90a35050565b634e487b7160e01b5f52604160045260245ffd5b600181811c9082168061012457607f821691505b60208210810361014257634e487b7160e01b5f52602260045260245ffd5b50919050565b601f82111561018f57805f5260205f20601f840160051c8101602085101561016d5750805b601f840160051c820191505b8181101561018c575f8155600101610179565b50505b505050565b81516001600160401b038111156101ad576101ad6100fc565b6101c1816101bb8454610110565b84610148565b6020601f8211600181146101f3575f83156101dc5750848201515b5f19600385901b1c1916600184901b17845561018c565b5f84815260208120601f198516915b828110156102225787850151825560209485019460019092019101610202565b508482101561023f57868401515f19600387901b60f8161c191681555b50505050600190811b01905550565b6111588061025b5f395ff3fe608060405234801561000f575f5ffd5b5060043610610111575f3560e01c806370a082311161009e578063a22cb4651161006e578063a22cb46514610233578063b88d4fde14610246578063c87b56dd14610259578063e985e9c51461026c578063f2fde38b1461027f575f5ffd5b806370a08231146101ff578063715018a6146102125780638da5cb5b1461021a57806395d89b411461022b575f5ffd5b806323b872dd116100e457806323b872dd1461019257806342842e0e146101a557806342966c68146101b85780636352211e146101cb5780636a627842146101de575f5ffd5b806301ffc9a71461011557806306fdde031461013d578063081812fc14610152578063095ea7b31461017d575b5f5ffd5b610128610123366004610de6565b610292565b60405190151581526020015b60405180910390f35b6101456102e3565b6040516101349190610e2f565b610165610160366004610e41565b610372565b6040516001600160a01b039091168152602001610134565b61019061018b366004610e6e565b610399565b005b6101906101a0366004610e96565b6103a8565b6101906101b3366004610e96565b610436565b6101906101c6366004610e41565b610455565b6101656101d9366004610e41565b6104bd565b6101f16101ec366004610ed0565b6104c7565b604051908152602001610134565b6101f161020d366004610ed0565b6104f8565b61019061053d565b6006546001600160a01b0316610165565b610145610550565b610190610241366004610ee9565b61055f565b610190610254366004610f36565b61056a565b610145610267366004610e41565b610582565b61012861027a366004611013565b6105f3565b61019061028d366004610ed0565b610620565b5f6001600160e01b031982166380ac58cd60e01b14806102c257506001600160e01b03198216635b5e139f60e01b145b806102dd57506301ffc9a760e01b6001600160e01b03198316145b92915050565b60605f80546102f190611044565b80601f016020809104026020016040519081016040528092919081815260200182805461031d90611044565b80156103685780601f1061033f57610100808354040283529160200191610368565b820191905f5260205f20905b81548152906001019060200180831161034b57829003601f168201915b5050505050905090565b5f61037c8261065a565b505f828152600460205260409020546001600160a01b03166102dd565b6103a4828233610692565b5050565b6001600160a01b0382166103d657604051633250574960e11b81525f60048201526024015b60405180910390fd5b5f6103e283833361069f565b9050836001600160a01b0316816001600160a01b031614610430576040516364283d7b60e01b81526001600160a01b03808616600483015260248201849052821660448201526064016103cd565b50505050565b61045083838360405180602001604052805f81525061056a565b505050565b61045d610791565b610466816104bd565b6001600160a01b0316336001600160a01b0316146104b15760405162461bcd60e51b815260206004820152600860248201526737379037bbb732b960c11b60448201526064016103cd565b6104ba816107be565b50565b5f6102dd8261065a565b5f6104d0610791565b600780545f91826104e08361107c565b9190505590506104f083826107f6565b90505b919050565b5f6001600160a01b038216610522576040516322718ad960e21b81525f60048201526024016103cd565b506001600160a01b03165f9081526003602052604090205490565b610545610791565b61054e5f61080f565b565b6060600180546102f190611044565b6103a4338383610860565b6105758484846103a8565b61043033858585856108fe565b606061058d8261065a565b505f6105a360408051602081019091525f815290565b90505f8151116105c15760405180602001604052805f8152506105ec565b806105cb84610a26565b6040516020016105dc9291906110b7565b6040516020818303038152906040525b9392505050565b6001600160a01b039182165f90815260056020908152604080832093909416825291909152205460ff1690565b610628610791565b6001600160a01b03811661065157604051631e4fbdf760e01b81525f60048201526024016103cd565b6104ba8161080f565b5f818152600260205260408120546001600160a01b0316806104f057604051637e27328960e01b8152600481018490526024016103cd565b6104508383836001610ab6565b5f828152600260205260408120546001600160a01b03908116908316156106cb576106cb818486610bba565b6001600160a01b03811615610705576106e65f855f5f610ab6565b6001600160a01b0381165f90815260036020526040902080545f190190555b6001600160a01b03851615610733576001600160a01b0385165f908152600360205260409020805460010190555b5f8481526002602052604080822080546001600160a01b0319166001600160a01b0389811691821790925591518793918516917fddf252ad1be2c89b69c2b068fc378daa952ba7f163c4a11628f55a4df523b3ef91a4949350505050565b6006546001600160a01b0316331461054e5760405163118cdaa760e01b81523360048201526024016103cd565b5f6107ca5f835f61069f565b90506001600160a01b0381166103a457604051637e27328960e01b8152600481018390526024016103cd565b6103a4828260405180602001604052805f815250610c1e565b600680546001600160a01b038381166001600160a01b0319831681179093556040519116919082907f8be0079c531659141344cd1fd0a4f28419497f9722a3daafe3b4186f6b6457e0905f90a35050565b6001600160a01b03821661089257604051630b61174360e31b81526001600160a01b03831660048201526024016103cd565b6001600160a01b038381165f81815260056020908152604080832094871680845294825291829020805460ff191686151590811790915591519182527f17307eab39ab6107e8899845ad3d59bd9653f200f220920489ca2b5937696c31910160405180910390a3505050565b6001600160a01b0383163b15610a1f57604051630a85bd0160e11b81526001600160a01b0384169063150b7a02906109409088908890879087906004016110cb565b6020604051808303815f875af192505050801561097a575060408051601f3d908101601f1916820190925261097791810190611107565b60015b6109e1573d8080156109a7576040519150601f19603f3d011682016040523d82523d5f602084013e6109ac565b606091505b5080515f036109d957604051633250574960e11b81526001600160a01b03851660048201526024016103cd565b805160208201fd5b6001600160e01b03198116630a85bd0160e11b14610a1d57604051633250574960e11b81526001600160a01b03851660048201526024016103cd565b505b5050505050565b60605f610a3283610c35565b60010190505f8167ffffffffffffffff811115610a5157610a51610f22565b6040519080825280601f01601f191660200182016040528015610a7b576020820181803683370190505b5090508181016020015b5f19016f181899199a1a9b1b9c1cb0b131b232b360811b600a86061a8153600a8504945084610a8557509392505050565b8080610aca57506001600160a01b03821615155b15610b8b575f610ad98461065a565b90506001600160a01b03831615801590610b055750826001600160a01b0316816001600160a01b031614155b8015610b185750610b1681846105f3565b155b15610b415760405163a9fbf51f60e01b81526001600160a01b03841660048201526024016103cd565b8115610b895783856001600160a01b0316826001600160a01b03167f8c5be1e5ebec7d5bd14f71427d1e84f3dd0314c0f7b2291e5b200ac8c7c3b92560405160405180910390a45b505b50505f90815260046020526040902080546001600160a01b0319166001600160a01b0392909216919091179055565b610bc5838383610d0c565b610450576001600160a01b038316610bf357604051637e27328960e01b8152600481018290526024016103cd565b60405163177e802f60e01b81526001600160a01b0383166004820152602481018290526044016103cd565b610c288383610d70565b610450335f8585856108fe565b5f8072184f03e93ff9f4daa797ed6e38ed64bf6a1f0160401b8310610c735772184f03e93ff9f4daa797ed6e38ed64bf6a1f0160401b830492506040015b6d04ee2d6d415b85acef81000000008310610c9f576d04ee2d6d415b85acef8100000000830492506020015b662386f26fc100008310610cbd57662386f26fc10000830492506010015b6305f5e1008310610cd5576305f5e100830492506008015b6127108310610ce957612710830492506004015b60648310610cfb576064830492506002015b600a83106104f05760010192915050565b5f6001600160a01b03831615801590610d685750826001600160a01b0316846001600160a01b03161480610d455750610d4584846105f3565b80610d6857505f828152600460205260409020546001600160a01b038481169116145b949350505050565b6001600160a01b038216610d9957604051633250574960e11b81525f60048201526024016103cd565b5f610da583835f61069f565b90506001600160a01b03811615610450576040516339e3563760e11b81525f60048201526024016103cd565b6001600160e01b0319811681146104ba575f5ffd5b5f60208284031215610df6575f5ffd5b81356105ec81610dd1565b5f81518084528060208401602086015e5f602082860101526020601f19601f83011685010191505092915050565b602081525f6105ec6020830184610e01565b5f60208284031215610e51575f5ffd5b5035919050565b80356001600160a01b03811681146104f3575f5ffd5b5f5f60408385031215610e7f575f5ffd5b610e8883610e58565b946020939093013593505050565b5f5f5f60608486031215610ea8575f5ffd5b610eb184610e58565b9250610ebf60208501610e58565b929592945050506040919091013590565b5f60208284031215610ee0575f5ffd5b6105ec82610e58565b5f5f60408385031215610efa575f5ffd5b610f0383610e58565b915060208301358015158114610f17575f5ffd5b809150509250929050565b634e487b7160e01b5f52604160045260245ffd5b5f5f5f5f60808587031215610f49575f5ffd5b610f5285610e58565b9350610f6060208601610e58565b925060408501359150606085013567ffffffffffffffff811115610f82575f5ffd5b8501601f81018713610f92575f5ffd5b803567ffffffffffffffff811115610fac57610fac610f22565b604051601f8201601f19908116603f0116810167ffffffffffffffff81118282101715610fdb57610fdb610f22565b604052818152828201602001891015610ff2575f5ffd5b816020840160208301375f6020838301015280935050505092959194509250565b5f5f60408385031215611024575f5ffd5b61102d83610e58565b915061103b60208401610e58565b90509250929050565b600181811c9082168061105857607f821691505b60208210810361107657634e487b7160e01b5f52602260045260245ffd5b50919050565b5f6001820161109957634e487b7160e01b5f52601160045260245ffd5b5060010190565b5f81518060208401855e5f93019283525090919050565b5f610d686110c583866110a0565b846110a0565b6001600160a01b03858116825284166020820152604081018390526080606082018190525f906110fd90830184610e01565b9695505050505050565b5f60208284031215611117575f5ffd5b81516105ec81610dd156fea26469706673582212209d21efc92c169904e85c09337c71f6987ad01f0ca41a8a578a331c202aef8d8164736f6c634300081c0033",
  "linkReferences": {},
  "deployedLinkReferences": {},
  "immutableReferences": {},
  "inputSourceName": "project/contracts/MyNFT.sol",
  "buildInfoId": "solc-0_8_28-11948f26f52c7c0bf0e05ff8c92effc39169a3fa"
}