{
  "_format": "hh3-artifact-1",
  "contractName": "NFTAuctionMarketNew",
  "sourceName": "contracts/NFTAuctionMarketNew.sol",
  "abi": [
    {
      "inputs": [],
      "name": "InvalidInitialization",
      "type": "error"
    },
    {
      "inputs": [],
      "name": "NotInitializing",
      "type": "error"
    },
    {
      "inputs": [],
      "name": "ReentrancyGuardReentrantCall",
      "type": "error"
    },
    {
      "anonymous": false,
      "inputs": [
        {
          "indexed": true,
          "internalType": "uint256",
          "name": "tokenId",
          "type": "uint256"
        },
        {
          "indexed": false,
          "internalType": "uint256",
          "name": "minPriceEth",
          "type": "uint256"
        }
      ],
      "name": "AuctionCreated",
      "type": "event"
    },
    {
      "anonymous": false,
      "inputs": [
        {
          "indexed": true,
          "internalType": "uint256",
          "name": "tokenId",
          "type": "uint256"
        },
        {
          "indexed": false,
          "internalType": "address",
          "name": "winner",
          "type": "address"
        },
        {
          "indexed": false,
          "internalType": "uint256",
          "name": "amount",
          "type": "uint256"
        }
      ],
      "name": "AuctionSettled",
      "type": "event"
    },
    {
      "anonymous": false,
      "inputs": [
        {
          "indexed": true,
          "internalType": "uint256",
          "name": "tokenId",
          "type": "uint256"
        },
        {
          "indexed": false,
          "internalType": "address",
          "name": "bidder",
          "type": "address"
        },
        {
          "indexed": false,
          "internalType": "uint256",
          "name": "amount",
          "type": "uint256"
        }
      ],
      "name": "BidPlaced",
      "type": "event"
    },
    {
      "anonymous": false,
      "inputs": [
        {
          "indexed": false,
          "internalType": "uint64",
          "name": "version",
          "type": "uint64"
        }
      ],
      "name": "Initialized",
      "type": "event"
    },
    {
      "inputs": [
        {
          "internalType": "uint256",
          "name": "",
          "type": "uint256"
        }
      ],
      "name": "auctions",
      "outputs": [
        {
          "internalType": "address",
          "name": "seller",
          "type": "address"
        },
        {
          "internalType": "uint256",
          "name": "tokenId",
          "type": "uint256"
        },
        {
          "internalType": "uint256",
          "name": "minPriceEth",
          "type": "uint256"
        },
        {
          "internalType": "uint256",
          "name": "highestBid",
          "type": "uint256"
        },
        {
          "internalType": "address",
          "name": "highestBidder",
          "type": "address"
        },
        {
          "internalType": "bool",
          "name": "active",
          "type": "bool"
        }
      ],
      "stateMutability": "view",
      "type": "function"
    },
    {
      "inputs": [
        {
          "internalType": "uint256",
          "name": "_tokenId",
          "type": "uint256"
        },
        {
          "internalType": "uint256",
          "name": "_minPriceEth",
          "type": "uint256"
        }
      ],
      "name": "createAuction",
      "outputs": [],
      "stateMutability": "nonpayable",
      "type": "function"
    },
    {
      "inputs": [
        {
          "internalType": "uint256",
          "name": "_tokenId",
          "type": "uint256"
        }
      ],
      "name": "getHighestBidInUsd",
      "outputs": [
        {
          "internalType": "uint256",
          "name": "",
          "type": "uint256"
        }
      ],
      "stateMutability": "view",
      "type": "function"
    },
    {
      "inputs": [
        {
          "internalType": "address",
          "name": "_nftAddress",
          "type": "address"
        },
        {
          "internalType": "address",
          "name": "_priceFeedAddress",
          "type": "address"
        }
      ],
      "name": "initialize",
      "outputs": [],
      "stateMutability": "nonpayable",
      "type": "function"
    },
    {
      "inputs": [],
      "name": "nftConntract",
      "outputs": [
        {
          "internalType": "contract IERC721",
          "name": "",
          "type": "address"
        }
      ],
      "stateMutability": "view",
      "type": "function"
    },
    {
      "inputs": [],
      "name": "owner",
      "outputs": [
        {
          "internalType": "address",
          "name": "",
          "type": "address"
        }
      ],
      "stateMutability": "view",
      "type": "function"
    },
    {
      "inputs": [
        {
          "internalType": "uint256",
          "name": "_tokenId",
          "type": "uint256"
        }
      ],
      "name": "placeBid",
      "outputs": [],
      "stateMutability": "payable",
      "type": "function"
    },
    {
      "inputs": [
        {
          "internalType": "uint256",
          "name": "_tokenId",
          "type": "uint256"
        }
      ],
      "name": "settleAuction",
      "outputs": [],
      "stateMutability": "nonpayable",
      "type": "function"
    }
  ],
  "bytecode": "0x6080604052348015600e575f5ffd5b50610ab28061001c5f395ff3fe608060405260043610610079575f3560e01c8063485cc9551161004c578063485cc95514610126578063571a26a0146101455780638da5cb5b146101e35780639979ef4514610202575f5ffd5b80630121683f1461007d57806303d8fc571461009e57806316bd9fdc146100d05780632e99361114610107575b5f5ffd5b348015610088575f5ffd5b5061009c610097366004610913565b610215565b005b3480156100a9575f5ffd5b506100bd6100b8366004610933565b61034b565b6040519081526020015b60405180910390f35b3480156100db575f5ffd5b506001546100ef906001600160a01b031681565b6040516001600160a01b0390911681526020016100c7565b348015610112575f5ffd5b5061009c610121366004610933565b610414565b348015610131575f5ffd5b5061009c610140366004610965565b610659565b348015610150575f5ffd5b506101a461015f366004610933565b5f60208190529081526040902080546001820154600283015460038401546004909401546001600160a01b03938416949293919291811690600160a01b900460ff1686565b604080516001600160a01b03978816815260208101969096528501939093526060840191909152909216608082015290151560a082015260c0016100c7565b3480156101ee575f5ffd5b506003546100ef906001600160a01b031681565b61009c610210366004610933565b6106ef565b600154604051632142170760e11b8152336004820152306024820152604481018490526001600160a01b03909116906342842e0e906064015f604051808303815f87803b158015610264575f5ffd5b505af1158015610276573d5f5f3e3d5ffd5b50506040805160c08101825233815260208082018781528284018781525f6060850181815260808601828152600160a088018181528d855284885293899020975188546001600160a01b0319166001600160a01b03918216178955955190880155925160028701555160038601559051600490940180549151949092166001600160a81b031990911617600160a01b931515939093029290921790915590518481528593507fe00a2da3a0f34a566402a244ab7ec63f8ab7472591cb18edf3269aa00461a41092500160405180910390a25050565b5f5f60025f9054906101000a90046001600160a01b03166001600160a01b031663feaf968c6040518163ffffffff1660e01b815260040160a060405180830381865afa15801561039d573d5f5f3e3d5ffd5b505050506040513d601f19601f820116820180604052508101906103c191906109af565b5050509150505f816402540be4006103d99190610a11565b5f85815260208190526040902060030154909150670de0b6b3a764000090610402908390610a46565b61040c9190610a5d565b949350505050565b61041c6108c9565b5f8181526020819052604090206004810154600160a01b900460ff1661047b5760405162461bcd60e51b815260206004820152600f60248201526e105b1c9958591e481cd95d1d1b1959608a1b60448201526064015b60405180910390fd5b60048101546001600160a01b03166104c25760405162461bcd60e51b815260206004820152600a6024820152694e6f2077696e6e65722160b01b6044820152606401610472565b60048101805460ff60a01b19169055805460038201546040515f926001600160a01b031691908381818185875af1925050503d805f811461051e576040519150601f19603f3d011682016040523d82523d5f602084013e610523565b606091505b505090508061056c5760405162461bcd60e51b81526020600482015260156024820152741cd95b1b195c881c185e5b595b9d0819985a5b1959605a1b6044820152606401610472565b600154600483810154604051632142170760e11b815230928101929092526001600160a01b03908116602483015260448201869052909116906342842e0e906064015f604051808303815f87803b1580156105c5575f5ffd5b505af11580156105d7573d5f5f3e3d5ffd5b5050505060048201546003830154604080516001600160a01b039093168352602083019190915284917fc9f72b276a388619c6d185d146697036241880c36654b1a3ffdad07c24038d99910160405180910390a2505061065660017f9b779b17422d0df92223018b32b4d1fa46e071723d6817e2486d003becc55f0055565b50565b600354600160a01b900460ff16156106a95760405162461bcd60e51b8152602060048201526013602482015272105b1c9958591e481a5b9a5d1a585b1a5e9959606a1b6044820152606401610472565b600380546001600160a81b0319163317600160a01b179055600180546001600160a01b039384166001600160a01b03199182161790915560028054929093169116179055565b6106f76108c9565b5f8181526020819052604090206004810154600160a01b900460ff166107545760405162461bcd60e51b815260206004820152601260248201527141756374696f6e206e6f742061637469766560701b6044820152606401610472565b80600201543411801561076a5750806003015434115b6107a35760405162461bcd60e51b815260206004820152600a60248201526942696420746f206c6f7760b01b6044820152606401610472565b6004810180546003830180546001600160a01b0319831633179093553490556001600160a01b0316908115610863575f826001600160a01b0316826040515f6040518083038185875af1925050503d805f811461081b576040519150601f19603f3d011682016040523d82523d5f602084013e610820565b606091505b50509050806108615760405162461bcd60e51b815260206004820152600d60248201526c1c99599d5b990819985a5b1959609a1b6044820152606401610472565b505b6040805133815234602082015285917f0e54eff26401bf69b81b26f60bd85ef47f5d85275c1d268d84f68d6897431c47910160405180910390a250505061065660017f9b779b17422d0df92223018b32b4d1fa46e071723d6817e2486d003becc55f0055565b7f9b779b17422d0df92223018b32b4d1fa46e071723d6817e2486d003becc55f0080546001190161090d57604051633ee5aeb560e01b815260040160405180910390fd5b60029055565b5f5f60408385031215610924575f5ffd5b50508035926020909101359150565b5f60208284031215610943575f5ffd5b5035919050565b80356001600160a01b0381168114610960575f5ffd5b919050565b5f5f60408385031215610976575f5ffd5b61097f8361094a565b915061098d6020840161094a565b90509250929050565b805169ffffffffffffffffffff81168114610960575f5ffd5b5f5f5f5f5f60a086880312156109c3575f5ffd5b6109cc86610996565b602087015160408801516060890151929750909550935091506109f160808701610996565b90509295509295909350565b634e487b7160e01b5f52601160045260245ffd5b8082025f8212600160ff1b84141615610a2c57610a2c6109fd565b8181058314821517610a4057610a406109fd565b92915050565b8082028115828204841417610a4057610a406109fd565b5f82610a7757634e487b7160e01b5f52601260045260245ffd5b50049056fea264697066735822122041a714d38e162eca1cc3099df5b07b86dbf1fcf8d69f30136982c837869463e164736f6c634300081c0033",
  "linkReferences": {},
  "deployedLinkReferences": {},
  "immutableReferences": {},
  "inputSourceName": "project/contracts/NFTAuctionMarketNew.sol",
  "buildInfoId": "solc-0_8_28-18f4a69ae50543a62c557fd4f674987525ab5e19"
}