{
  "_format": "hh3-artifact-1",
  "contractName": "NFTAuctionMarketNewV2",
  "sourceName": "contracts/NFTAuctionMarketNewV2.sol",
  "abi": [
    {
      "inputs": [],
      "name": "ReentrancyGuardReentrantCall",
      "type": "error"
    },
    {
      "anonymous": false,
      "inputs": [
        {
          "indexed": true,
          "internalType": "uint256",
          "name": "tokenId",
          "type": "uint256"
        },
        {
          "indexed": false,
          "internalType": "uint256",
          "name": "minPriceEth",
          "type": "uint256"
        }
      ],
      "name": "AuctionCreated",
      "type": "event"
    },
    {
      "anonymous": false,
      "inputs": [
        {
          "indexed": true,
          "internalType": "uint256",
          "name": "tokenId",
          "type": "uint256"
        },
        {
          "indexed": false,
          "internalType": "address",
          "name": "winner",
          "type": "address"
        },
        {
          "indexed": false,
          "internalType": "uint256",
          "name": "amount",
          "type": "uint256"
        }
      ],
      "name": "AuctionSettled",
      "type": "event"
    },
    {
      "anonymous": false,
      "inputs": [
        {
          "indexed": true,
          "internalType": "uint256",
          "name": "tokenId",
          "type": "uint256"
        },
        {
          "indexed": false,
          "internalType": "address",
          "name": "bidder",
          "type": "address"
        },
        {
          "indexed": false,
          "internalType": "uint256",
          "name": "amount",
          "type": "uint256"
        }
      ],
      "name": "BidPlaced",
      "type": "event"
    },
    {
      "inputs": [
        {
          "internalType": "uint256",
          "name": "",
          "type": "uint256"
        }
      ],
      "name": "auctions",
      "outputs": [
        {
          "internalType": "address",
          "name": "seller",
          "type": "address"
        },
        {
          "internalType": "uint256",
          "name": "tokenId",
          "type": "uint256"
        },
        {
          "internalType": "uint256",
          "name": "minPriceEth",
          "type": "uint256"
        },
        {
          "internalType": "uint256",
          "name": "highestBid",
          "type": "uint256"
        },
        {
          "internalType": "address",
          "name": "highestBidder",
          "type": "address"
        },
        {
          "internalType": "bool",
          "name": "active",
          "type": "bool"
        }
      ],
      "stateMutability": "view",
      "type": "function"
    },
    {
      "inputs": [
        {
          "internalType": "uint256",
          "name": "_tokenId",
          "type": "uint256"
        },
        {
          "internalType": "uint256",
          "name": "_minPriceEth",
          "type": "uint256"
        }
      ],
      "name": "createAuction",
      "outputs": [],
      "stateMutability": "nonpayable",
      "type": "function"
    },
    {
      "inputs": [
        {
          "internalType": "uint256",
          "name": "_tokenId",
          "type": "uint256"
        }
      ],
      "name": "getHighestBidInUsd",
      "outputs": [
        {
          "internalType": "uint256",
          "name": "",
          "type": "uint256"
        }
      ],
      "stateMutability": "view",
      "type": "function"
    },
    {
      "inputs": [
        {
          "internalType": "address",
          "name": "_nftAddress",
          "type": "address"
        },
        {
          "internalType": "address",
          "name": "_priceFeedAddress",
          "type": "address"
        }
      ],
      "name": "initialize",
      "outputs": [],
      "stateMutability": "nonpayable",
      "type": "function"
    },
    {
      "inputs": [],
      "name": "nftConntract",
      "outputs": [
        {
          "internalType": "contract IERC721",
          "name": "",
          "type": "address"
        }
      ],
      "stateMutability": "view",
      "type": "function"
    },
    {
      "inputs": [],
      "name": "owner",
      "outputs": [
        {
          "internalType": "address",
          "name": "",
          "type": "address"
        }
      ],
      "stateMutability": "view",
      "type": "function"
    },
    {
      "inputs": [
        {
          "internalType": "uint256",
          "name": "_tokenId",
          "type": "uint256"
        }
      ],
      "name": "placeBid",
      "outputs": [],
      "stateMutability": "payable",
      "type": "function"
    },
    {
      "inputs": [
        {
          "internalType": "uint256",
          "name": "_tokenId",
          "type": "uint256"
        }
      ],
      "name": "settleAuction",
      "outputs": [],
      "stateMutability": "nonpayable",
      "type": "function"
    }
  ],
  "bytecode": "0x6080604052348015600e575f5ffd5b5060015f55610a51806100205f395ff3fe608060405260043610610079575f3560e01c8063485cc9551161004c578063485cc95514610126578063571a26a0146101455780638da5cb5b146101e45780639979ef4514610203575f5ffd5b80630121683f1461007d57806303d8fc571461009e57806316bd9fdc146100d05780632e99361114610107575b5f5ffd5b348015610088575f5ffd5b5061009c6100973660046108b2565b610216565b005b3480156100a9575f5ffd5b506100bd6100b83660046108d2565b61034c565b6040519081526020015b60405180910390f35b3480156100db575f5ffd5b506002546100ef906001600160a01b031681565b6040516001600160a01b0390911681526020016100c7565b348015610112575f5ffd5b5061009c6101213660046108d2565b610415565b348015610131575f5ffd5b5061009c610140366004610904565b61063a565b348015610150575f5ffd5b506101a561015f3660046108d2565b600160208190525f9182526040909120805491810154600282015460038301546004909301546001600160a01b039485169492939192811690600160a01b900460ff1686565b604080516001600160a01b03978816815260208101969096528501939093526060840191909152909216608082015290151560a082015260c0016100c7565b3480156101ef575f5ffd5b506004546100ef906001600160a01b031681565b61009c6102113660046108d2565b6106d0565b600254604051632142170760e11b8152336004820152306024820152604481018490526001600160a01b03909116906342842e0e906064015f604051808303815f87803b158015610265575f5ffd5b505af1158015610277573d5f5f3e3d5ffd5b50506040805160c08101825233815260208082018781528284018781525f6060850181815260808601828152600160a088018181528d855281885293899020975188546001600160a01b0319166001600160a01b03918216178955955190880155925160028701555160038601559051600490940180549151949092166001600160a81b031990911617600160a01b931515939093029290921790915590518481528593507fe00a2da3a0f34a566402a244ab7ec63f8ab7472591cb18edf3269aa00461a41092500160405180910390a25050565b5f5f60035f9054906101000a90046001600160a01b03166001600160a01b031663feaf968c6040518163ffffffff1660e01b815260040160a060405180830381865afa15801561039e573d5f5f3e3d5ffd5b505050506040513d601f19601f820116820180604052508101906103c2919061094e565b5050509150505f816402540be4006103da91906109b0565b5f85815260016020526040902060030154909150670de0b6b3a7640000906104039083906109e5565b61040d91906109fc565b949350505050565b61041d61088a565b5f8181526001602052604090206004810154600160a01b900460ff1661047c5760405162461bcd60e51b815260206004820152600f60248201526e105b1c9958591e481cd95d1d1b1959608a1b60448201526064015b60405180910390fd5b60048101546001600160a01b03166104c35760405162461bcd60e51b815260206004820152600a6024820152694e6f2077696e6e65722160b01b6044820152606401610473565b60048101805460ff60a01b19169055805460038201546040515f926001600160a01b031691908381818185875af1925050503d805f811461051f576040519150601f19603f3d011682016040523d82523d5f602084013e610524565b606091505b505090508061056d5760405162461bcd60e51b81526020600482015260156024820152741cd95b1b195c881c185e5b595b9d0819985a5b1959605a1b6044820152606401610473565b600254600483810154604051632142170760e11b815230928101929092526001600160a01b03908116602483015260448201869052909116906342842e0e906064015f604051808303815f87803b1580156105c6575f5ffd5b505af11580156105d8573d5f5f3e3d5ffd5b5050505060048201546003830154604080516001600160a01b039093168352602083019190915284917fc9f72b276a388619c6d185d146697036241880c36654b1a3ffdad07c24038d99910160405180910390a2505061063760015f55565b50565b600454600160a01b900460ff161561068a5760405162461bcd60e51b8152602060048201526013602482015272105b1c9958591e481a5b9a5d1a585b1a5e9959606a1b6044820152606401610473565b600480546001600160a81b0319163317600160a01b179055600280546001600160a01b039384166001600160a01b03199182161790915560038054929093169116179055565b6106d861088a565b5f8181526001602052604090206004810154600160a01b900460ff166107355760405162461bcd60e51b815260206004820152601260248201527141756374696f6e206e6f742061637469766560701b6044820152606401610473565b80600201543411801561074b5750806003015434115b6107845760405162461bcd60e51b815260206004820152600a60248201526942696420746f206c6f7760b01b6044820152606401610473565b6004810180546003830180546001600160a01b0319831633179093553490556001600160a01b0316908115610844575f826001600160a01b0316826040515f6040518083038185875af1925050503d805f81146107fc576040519150601f19603f3d011682016040523d82523d5f602084013e610801565b606091505b50509050806108425760405162461bcd60e51b815260206004820152600d60248201526c1c99599d5b990819985a5b1959609a1b6044820152606401610473565b505b6040805133815234602082015285917f0e54eff26401bf69b81b26f60bd85ef47f5d85275c1d268d84f68d6897431c47910160405180910390a250505061063760015f55565b60025f54036108ac57604051633ee5aeb560e01b815260040160405180910390fd5b60025f55565b5f5f604083850312156108c3575f5ffd5b50508035926020909101359150565b5f602082840312156108e2575f5ffd5b5035919050565b80356001600160a01b03811681146108ff575f5ffd5b919050565b5f5f60408385031215610915575f5ffd5b61091e836108e9565b915061092c602084016108e9565b90509250929050565b805169ffffffffffffffffffff811681146108ff575f5ffd5b5f5f5f5f5f60a08688031215610962575f5ffd5b61096b86610935565b6020870151604088015160608901519297509095509350915061099060808701610935565b90509295509295909350565b634e487b7160e01b5f52601160045260245ffd5b8082025f8212600160ff1b841416156109cb576109cb61099c565b81810583148215176109df576109df61099c565b92915050565b80820281158282048414176109df576109df61099c565b5f82610a1657634e487b7160e01b5f52601260045260245ffd5b50049056fea264697066735822122054c6018ef3aad11f27bd4cca59687ebdff6efc95610304abd00890036e1f04e664736f6c634300081c0033",
  "linkReferences": {},
  "deployedLinkReferences": {},
  "immutableReferences": {},
  "inputSourceName": "project/contracts/NFTAuctionMarketNewV2.sol",
  "buildInfoId": "solc-0_8_28-785549ba1f901ee82ab31f00f8042767f726206e"
}