{
  "_format": "hh3-artifact-1",
  "contractName": "UUPSProxyDelegatecallV2",
  "sourceName": "contracts/UUPSProxyDelegatecallV2.sol",
  "abi": [
    {
      "inputs": [
        {
          "internalType": "address",
          "name": "_impl",
          "type": "address"
        },
        {
          "internalType": "bytes",
          "name": "_initData",
          "type": "bytes"
        }
      ],
      "stateMutability": "nonpayable",
      "type": "constructor"
    },
    {
      "stateMutability": "payable",
      "type": "fallback"
    },
    {
      "inputs": [],
      "name": "deployer",
      "outputs": [
        {
          "internalType": "address",
          "name": "",
          "type": "address"
        }
      ],
      "stateMutability": "view",
      "type": "function"
    },
    {
      "inputs": [],
      "name": "impl",
      "outputs": [
        {
          "internalType": "address",
          "name": "",
          "type": "address"
        }
      ],
      "stateMutability": "view",
      "type": "function"
    },
    {
      "inputs": [
        {
          "internalType": "address",
          "name": "newImpl",
          "type": "address"
        }
      ],
      "name": "upgradeTo",
      "outputs": [],
      "stateMutability": "nonpayable",
      "type": "function"
    },
    {
      "stateMutability": "payable",
      "type": "receive"
    }
  ],
  "bytecode": "0x608060405234801561000f575f5ffd5b506040516104ad3803806104ad83398101604081905261002e91610113565b5f80546001600160a01b0384166001600160a01b03199182161790915560018054909116331790558051156100f8575f826001600160a01b03168260405161007691906101e2565b5f60405180830381855af49150503d805f81146100ae576040519150601f19603f3d011682016040523d82523d5f602084013e6100b3565b606091505b50509050806100f65760405162461bcd60e51b815260206004820152600b60248201526a1a5b9a5d0819985a5b195960aa1b604482015260640160405180910390fd5b505b50506101f8565b634e487b7160e01b5f52604160045260245ffd5b5f5f60408385031215610124575f5ffd5b82516001600160a01b038116811461013a575f5ffd5b60208401519092506001600160401b03811115610155575f5ffd5b8301601f81018513610165575f5ffd5b80516001600160401b0381111561017e5761017e6100ff565b604051601f8201601f19908116603f011681016001600160401b03811182821017156101ac576101ac6100ff565b6040528181528282016020018710156101c3575f5ffd5b8160208401602083015e5f602083830101528093505050509250929050565b5f82518060208501845e5f920191825250919050565b6102a8806102055f395ff3fe608060405260043610610037575f3560e01c80633659cfe61461004e5780638abf60771461006d578063d5f39488146100a757610046565b36610046576100446100c6565b005b6100446100c6565b348015610059575f5ffd5b50610044610068366004610236565b6101cb565b348015610078575f5ffd5b505f5461008b906001600160a01b031681565b6040516001600160a01b03909116815260200160405180910390f35b3480156100b2575f5ffd5b5060015461008b906001600160a01b031681565b5f546001600160a01b0316806101135760405162461bcd60e51b815260206004820152600d60248201526c1a5b5c1b081b995959081cd95d609a1b60448201526064015b60405180910390fd5b5f5f826001600160a01b03165f3660405161012f929190610263565b5f60405180830381855af49150503d805f8114610167576040519150601f19603f3d011682016040523d82523d5f602084013e61016c565b606091505b5091509150816101c35780511561018557805160208201fd5b60405162461bcd60e51b815260206004820152601360248201527211195b1959d85d1958d85b1b0819985a5b1959606a1b604482015260640161010a565b805160208201f35b6001546001600160a01b031633146102155760405162461bcd60e51b815260206004820152600d60248201526c37b7363c903232b83637bcb2b960991b604482015260640161010a565b5f80546001600160a01b0319166001600160a01b0392909216919091179055565b5f60208284031215610246575f5ffd5b81356001600160a01b038116811461025c575f5ffd5b9392505050565b818382375f910190815291905056fea2646970667358221220cdd51c7093d35a5adef379ec86b57b1b0d338c1d006e6f0c249c382db078f4fb64736f6c634300081c0033",
  "linkReferences": {},
  "deployedLinkReferences": {},
  "immutableReferences": {},
  "inputSourceName": "project/contracts/UUPSProxyDelegatecallV2.sol",
  "buildInfoId": "solc-0_8_28-efc2dbb1a5b50126556518d7b991174f9f6b059b"
}