{
  "_format": "hh3-artifact-1",
  "contractName": "NFTAuctionMarket",
  "sourceName": "contracts/NFTAuctionMarket.sol",
  "abi": [
    {
      "inputs": [],
      "stateMutability": "nonpayable",
      "type": "constructor"
    },
    {
      "inputs": [
        {
          "internalType": "address",
          "name": "target",
          "type": "address"
        }
      ],
      "name": "AddressEmptyCode",
      "type": "error"
    },
    {
      "inputs": [
        {
          "internalType": "address",
          "name": "implementation",
          "type": "address"
        }
      ],
      "name": "ERC1967InvalidImplementation",
      "type": "error"
    },
    {
      "inputs": [],
      "name": "ERC1967NonPayable",
      "type": "error"
    },
    {
      "inputs": [],
      "name": "FailedCall",
      "type": "error"
    },
    {
      "inputs": [],
      "name": "InvalidInitialization",
      "type": "error"
    },
    {
      "inputs": [],
      "name": "NotInitializing",
      "type": "error"
    },
    {
      "inputs": [
        {
          "internalType": "address",
          "name": "owner",
          "type": "address"
        }
      ],
      "name": "OwnableInvalidOwner",
      "type": "error"
    },
    {
      "inputs": [
        {
          "internalType": "address",
          "name": "account",
          "type": "address"
        }
      ],
      "name": "OwnableUnauthorizedAccount",
      "type": "error"
    },
    {
      "inputs": [],
      "name": "ReentrancyGuardReentrantCall",
      "type": "error"
    },
    {
      "inputs": [],
      "name": "UUPSUnauthorizedCallContext",
      "type": "error"
    },
    {
      "inputs": [
        {
          "internalType": "bytes32",
          "name": "slot",
          "type": "bytes32"
        }
      ],
      "name": "UUPSUnsupportedProxiableUUID",
      "type": "error"
    },
    {
      "anonymous": false,
      "inputs": [
        {
          "indexed": true,
          "internalType": "uint256",
          "name": "tokenId",
          "type": "uint256"
        },
        {
          "indexed": false,
          "internalType": "uint256",
          "name": "minPriceEth",
          "type": "uint256"
        }
      ],
      "name": "AuctionCreated",
      "type": "event"
    },
    {
      "anonymous": false,
      "inputs": [
        {
          "indexed": true,
          "internalType": "uint256",
          "name": "tokenId",
          "type": "uint256"
        },
        {
          "indexed": false,
          "internalType": "address",
          "name": "winner",
          "type": "address"
        },
        {
          "indexed": false,
          "internalType": "uint256",
          "name": "amount",
          "type": "uint256"
        }
      ],
      "name": "AuctionSettled",
      "type": "event"
    },
    {
      "anonymous": false,
      "inputs": [
        {
          "indexed": true,
          "internalType": "uint256",
          "name": "tokenId",
          "type": "uint256"
        },
        {
          "indexed": false,
          "internalType": "address",
          "name": "bidder",
          "type": "address"
        },
        {
          "indexed": false,
          "internalType": "uint256",
          "name": "amount",
          "type": "uint256"
        }
      ],
      "name": "BidPlaced",
      "type": "event"
    },
    {
      "anonymous": false,
      "inputs": [
        {
          "indexed": false,
          "internalType": "uint64",
          "name": "version",
          "type": "uint64"
        }
      ],
      "name": "Initialized",
      "type": "event"
    },
    {
      "anonymous": false,
      "inputs": [
        {
          "indexed": true,
          "internalType": "address",
          "name": "previousOwner",
          "type": "address"
        },
        {
          "indexed": true,
          "internalType": "address",
          "name": "newOwner",
          "type": "address"
        }
      ],
      "name": "OwnershipTransferred",
      "type": "event"
    },
    {
      "anonymous": false,
      "inputs": [
        {
          "indexed": true,
          "internalType": "address",
          "name": "implementation",
          "type": "address"
        }
      ],
      "name": "Upgraded",
      "type": "event"
    },
    {
      "inputs": [],
      "name": "UPGRADE_INTERFACE_VERSION",
      "outputs": [
        {
          "internalType": "string",
          "name": "",
          "type": "string"
        }
      ],
      "stateMutability": "view",
      "type": "function"
    },
    {
      "inputs": [
        {
          "internalType": "uint256",
          "name": "",
          "type": "uint256"
        }
      ],
      "name": "auctions",
      "outputs": [
        {
          "internalType": "address",
          "name": "seller",
          "type": "address"
        },
        {
          "internalType": "uint256",
          "name": "tokenId",
          "type": "uint256"
        },
        {
          "internalType": "uint256",
          "name": "minPriceEth",
          "type": "uint256"
        },
        {
          "internalType": "uint256",
          "name": "highestBid",
          "type": "uint256"
        },
        {
          "internalType": "address",
          "name": "highestBidder",
          "type": "address"
        },
        {
          "internalType": "bool",
          "name": "active",
          "type": "bool"
        }
      ],
      "stateMutability": "view",
      "type": "function"
    },
    {
      "inputs": [
        {
          "internalType": "uint256",
          "name": "_tokenId",
          "type": "uint256"
        },
        {
          "internalType": "uint256",
          "name": "_minPriceEth",
          "type": "uint256"
        }
      ],
      "name": "createAuction",
      "outputs": [],
      "stateMutability": "nonpayable",
      "type": "function"
    },
    {
      "inputs": [
        {
          "internalType": "uint256",
          "name": "_tokenId",
          "type": "uint256"
        }
      ],
      "name": "getHighestBidInUsd",
      "outputs": [
        {
          "internalType": "uint256",
          "name": "",
          "type": "uint256"
        }
      ],
      "stateMutability": "view",
      "type": "function"
    },
    {
      "inputs": [
        {
          "internalType": "address",
          "name": "_nftAddress",
          "type": "address"
        },
        {
          "internalType": "address",
          "name": "_priceFeedAddress",
          "type": "address"
        }
      ],
      "name": "initialize",
      "outputs": [],
      "stateMutability": "nonpayable",
      "type": "function"
    },
    {
      "inputs": [],
      "name": "nftConntract",
      "outputs": [
        {
          "internalType": "contract IERC721",
          "name": "",
          "type": "address"
        }
      ],
      "stateMutability": "view",
      "type": "function"
    },
    {
      "inputs": [],
      "name": "owner",
      "outputs": [
        {
          "internalType": "address",
          "name": "",
          "type": "address"
        }
      ],
      "stateMutability": "view",
      "type": "function"
    },
    {
      "inputs": [
        {
          "internalType": "uint256",
          "name": "_tokenId",
          "type": "uint256"
        }
      ],
      "name": "placeBid",
      "outputs": [],
      "stateMutability": "payable",
      "type": "function"
    },
    {
      "inputs": [],
      "name": "proxiableUUID",
      "outputs": [
        {
          "internalType": "bytes32",
          "name": "",
          "type": "bytes32"
        }
      ],
      "stateMutability": "view",
      "type": "function"
    },
    {
      "inputs": [],
      "name": "renounceOwnership",
      "outputs": [],
      "stateMutability": "nonpayable",
      "type": "function"
    },
    {
      "inputs": [
        {
          "internalType": "uint256",
          "name": "_tokenId",
          "type": "uint256"
        }
      ],
      "name": "settleAuction",
      "outputs": [],
      "stateMutability": "nonpayable",
      "type": "function"
    },
    {
      "inputs": [
        {
          "internalType": "address",
          "name": "newOwner",
          "type": "address"
        }
      ],
      "name": "transferOwnership",
      "outputs": [],
      "stateMutability": "nonpayable",
      "type": "function"
    },
    {
      "inputs": [
        {
          "internalType": "address",
          "name": "newImplementation",
          "type": "address"
        },
        {
          "internalType": "bytes",
          "name": "data",
          "type": "bytes"
        }
      ],
      "name": "upgradeToAndCall",
      "outputs": [],
      "stateMutability": "payable",
      "type": "function"
    }
  ],
  "bytecode": "0x60a060405230608052348015610013575f5ffd5b5061001c610021565b6100d3565b7ff0c57e16840df040f15088dc2f81fe391c3923bec73e23a9662efc9c229c6a00805468010000000000000000900460ff16156100715760405163f92ee8a960e01b815260040160405180910390fd5b80546001600160401b03908116146100d05780546001600160401b0319166001600160401b0390811782556040519081527fc7f505b2f371ae2175ee4913f4499e1f2633a7b5936321eed1cdaeb6115181d29060200160405180910390a15b50565b6080516113306100f95f395f8181610b7001528181610b990152610cdd01526113305ff3fe6080604052600436106100bf575f3560e01c806352d1902d1161007c5780638da5cb5b116100575780638da5cb5b146102645780639979ef45146102a0578063ad3cb1cc146102b3578063f2fde38b146102f0575f5ffd5b806352d1902d1461019e578063571a26a0146101b2578063715018a614610250575f5ffd5b80630121683f146100c357806303d8fc57146100e457806316bd9fdc146101165780632e9936111461014d578063485cc9551461016c5780634f1ef2861461018b575b5f5ffd5b3480156100ce575f5ffd5b506100e26100dd366004611004565b61030f565b005b3480156100ef575f5ffd5b506101036100fe366004611024565b610445565b6040519081526020015b60405180910390f35b348015610121575f5ffd5b50600154610135906001600160a01b031681565b6040516001600160a01b03909116815260200161010d565b348015610158575f5ffd5b506100e2610167366004611024565b61050e565b348015610177575f5ffd5b506100e2610186366004611056565b610740565b6100e261019936600461109b565b61087a565b3480156101a9575f5ffd5b50610103610899565b3480156101bd575f5ffd5b506102116101cc366004611024565b5f60208190529081526040902080546001820154600283015460038401546004909401546001600160a01b03938416949293919291811690600160a01b900460ff1686565b604080516001600160a01b03978816815260208101969096528501939093526060840191909152909216608082015290151560a082015260c00161010d565b34801561025b575f5ffd5b506100e26108b4565b34801561026f575f5ffd5b507f9016d09d72d40fdae2fd8ceac6b6234c7706214fd39c1cd1e609a0528c199300546001600160a01b0316610135565b6100e26102ae366004611024565b6108c7565b3480156102be575f5ffd5b506102e3604051806040016040528060058152602001640352e302e360dc1b81525081565b60405161010d919061115f565b3480156102fb575f5ffd5b506100e261030a366004611194565b610a8e565b6001546040516323b872dd60e01b8152336004820152306024820152604481018490526001600160a01b03909116906323b872dd906064015f604051808303815f87803b15801561035e575f5ffd5b505af1158015610370573d5f5f3e3d5ffd5b50506040805160c08101825233815260208082018781528284018781525f6060850181815260808601828152600160a088018181528d855284885293899020975188546001600160a01b0319166001600160a01b03918216178955955190880155925160028701555160038601559051600490940180549151949092166001600160a81b031990911617600160a01b931515939093029290921790915590518481528593507fe00a2da3a0f34a566402a244ab7ec63f8ab7472591cb18edf3269aa00461a41092500160405180910390a25050565b5f5f60025f9054906101000a90046001600160a01b03166001600160a01b031663feaf968c6040518163ffffffff1660e01b815260040160a060405180830381865afa158015610497573d5f5f3e3d5ffd5b505050506040513d601f19601f820116820180604052508101906104bb91906111c6565b5050509150505f816402540be4006104d39190611228565b5f85815260208190526040902060030154909150670de0b6b3a7640000906104fc908390611257565b610506919061126e565b949350505050565b610516610ac8565b5f8181526020819052604090206004810154600160a01b900460ff166105755760405162461bcd60e51b815260206004820152600f60248201526e105b1c9958591e481cd95d1d1b1959608a1b60448201526064015b60405180910390fd5b60048101546001600160a01b03166105bc5760405162461bcd60e51b815260206004820152600a6024820152694e6f2077696e6e65722160b01b604482015260640161056c565b60048101805460ff60a01b19169055805460038201546040515f926001600160a01b031691908381818185875af1925050503d805f8114610618576040519150601f19603f3d011682016040523d82523d5f602084013e61061d565b606091505b50509050806106665760405162461bcd60e51b81526020600482015260156024820152741cd95b1b195c881c185e5b595b9d0819985a5b1959605a1b604482015260640161056c565b600154600483810154604051632142170760e11b815230928101929092526001600160a01b03908116602483015260448201869052909116906342842e0e906064015f604051808303815f87803b1580156106bf575f5ffd5b505af11580156106d1573d5f5f3e3d5ffd5b5050505060048201546003830154604080516001600160a01b039093168352602083019190915284917fc9f72b276a388619c6d185d146697036241880c36654b1a3ffdad07c24038d99910160405180910390a2505061073d60015f5160206112db5f395f51905f5255565b50565b5f610749610b12565b805490915060ff600160401b820416159067ffffffffffffffff165f811580156107705750825b90505f8267ffffffffffffffff16600114801561078c5750303b155b90508115801561079a575080155b156107b85760405163f92ee8a960e01b815260040160405180910390fd5b845467ffffffffffffffff1916600117855583156107e257845460ff60401b1916600160401b1785555b6107eb33610b3c565b6107f3610b4d565b6107fb610b55565b600180546001600160a01b03808a166001600160a01b0319928316179092556002805492891692909116919091179055831561087157845460ff60401b19168555604051600181527fc7f505b2f371ae2175ee4913f4499e1f2633a7b5936321eed1cdaeb6115181d29060200160405180910390a15b50505050505050565b610882610b65565b61088b82610c09565b6108958282610c11565b5050565b5f6108a2610cd2565b505f5160206112bb5f395f51905f5290565b6108bc610d1b565b6108c55f610d76565b565b6108cf610ac8565b5f8181526020819052604090206004810154600160a01b900460ff1661092c5760405162461bcd60e51b815260206004820152601260248201527141756374696f6e206e6f742061637469766560701b604482015260640161056c565b8060020154341180156109425750806003015434115b61097b5760405162461bcd60e51b815260206004820152600a60248201526942696420746f206c6f7760b01b604482015260640161056c565b6004810180546003830180546001600160a01b0319831633179093553490556001600160a01b0316908115610a3b575f826001600160a01b0316826040515f6040518083038185875af1925050503d805f81146109f3576040519150601f19603f3d011682016040523d82523d5f602084013e6109f8565b606091505b5050905080610a395760405162461bcd60e51b815260206004820152600d60248201526c1c99599d5b990819985a5b1959609a1b604482015260640161056c565b505b6040805133815234602082015285917f0e54eff26401bf69b81b26f60bd85ef47f5d85275c1d268d84f68d6897431c47910160405180910390a250505061073d60015f5160206112db5f395f51905f5255565b610a96610d1b565b6001600160a01b038116610abf57604051631e4fbdf760e01b81525f600482015260240161056c565b61073d81610d76565b5f5160206112db5f395f51905f52805460011901610af957604051633ee5aeb560e01b815260040160405180910390fd5b60029055565b60015f5160206112db5f395f51905f5255565b5f807ff0c57e16840df040f15088dc2f81fe391c3923bec73e23a9662efc9c229c6a005b92915050565b610b44610de6565b61073d81610e0b565b6108c5610de6565b610b5d610de6565b6108c5610e13565b306001600160a01b037f0000000000000000000000000000000000000000000000000000000000000000161480610beb57507f00000000000000000000000000000000000000000000000000000000000000006001600160a01b0316610bdf5f5160206112bb5f395f51905f52546001600160a01b031690565b6001600160a01b031614155b156108c55760405163703e46dd60e11b815260040160405180910390fd5b61073d610d1b565b816001600160a01b03166352d1902d6040518163ffffffff1660e01b8152600401602060405180830381865afa925050508015610c6b575060408051601f3d908101601f19168201909252610c689181019061128d565b60015b610c9357604051634c9c8ce360e01b81526001600160a01b038316600482015260240161056c565b5f5160206112bb5f395f51905f528114610cc357604051632a87526960e21b81526004810182905260240161056c565b610ccd8383610e1b565b505050565b306001600160a01b037f000000000000000000000000000000000000000000000000000000000000000016146108c55760405163703e46dd60e11b815260040160405180910390fd5b33610d4d7f9016d09d72d40fdae2fd8ceac6b6234c7706214fd39c1cd1e609a0528c199300546001600160a01b031690565b6001600160a01b0316146108c55760405163118cdaa760e01b815233600482015260240161056c565b7f9016d09d72d40fdae2fd8ceac6b6234c7706214fd39c1cd1e609a0528c19930080546001600160a01b031981166001600160a01b03848116918217845560405192169182907f8be0079c531659141344cd1fd0a4f28419497f9722a3daafe3b4186f6b6457e0905f90a3505050565b610dee610e70565b6108c557604051631afcd79f60e31b815260040160405180910390fd5b610a96610de6565b610aff610de6565b610e2482610e89565b6040516001600160a01b038316907fbc7cd75a20ee27fd9adebab32041f755214dbc6bffa90cc0225b39da2e5c2d3b905f90a2805115610e6857610ccd8282610eec565b610895610f5e565b5f610e79610b12565b54600160401b900460ff16919050565b806001600160a01b03163b5f03610ebe57604051634c9c8ce360e01b81526001600160a01b038216600482015260240161056c565b5f5160206112bb5f395f51905f5280546001600160a01b0319166001600160a01b0392909216919091179055565b60605f5f846001600160a01b031684604051610f0891906112a4565b5f60405180830381855af49150503d805f8114610f40576040519150601f19603f3d011682016040523d82523d5f602084013e610f45565b606091505b5091509150610f55858383610f7d565b95945050505050565b34156108c55760405163b398979f60e01b815260040160405180910390fd5b606082610f9257610f8d82610fdc565b610fd5565b8151158015610fa957506001600160a01b0384163b155b15610fd257604051639996b31560e01b81526001600160a01b038516600482015260240161056c565b50805b9392505050565b805115610feb57805160208201fd5b60405163d6bda27560e01b815260040160405180910390fd5b5f5f60408385031215611015575f5ffd5b50508035926020909101359150565b5f60208284031215611034575f5ffd5b5035919050565b80356001600160a01b0381168114611051575f5ffd5b919050565b5f5f60408385031215611067575f5ffd5b6110708361103b565b915061107e6020840161103b565b90509250929050565b634e487b7160e01b5f52604160045260245ffd5b5f5f604083850312156110ac575f5ffd5b6110b58361103b565b9150602083013567ffffffffffffffff8111156110d0575f5ffd5b8301601f810185136110e0575f5ffd5b803567ffffffffffffffff8111156110fa576110fa611087565b604051601f8201601f19908116603f0116810167ffffffffffffffff8111828210171561112957611129611087565b604052818152828201602001871015611140575f5ffd5b816020840160208301375f602083830101528093505050509250929050565b602081525f82518060208401528060208501604085015e5f604082850101526040601f19601f83011684010191505092915050565b5f602082840312156111a4575f5ffd5b610fd58261103b565b805169ffffffffffffffffffff81168114611051575f5ffd5b5f5f5f5f5f60a086880312156111da575f5ffd5b6111e3866111ad565b60208701516040880151606089015192975090955093509150611208608087016111ad565b90509295509295909350565b634e487b7160e01b5f52601160045260245ffd5b8082025f8212600160ff1b8414161561124357611243611214565b8181058314821517610b3657610b36611214565b8082028115828204841417610b3657610b36611214565b5f8261128857634e487b7160e01b5f52601260045260245ffd5b500490565b5f6020828403121561129d575f5ffd5b5051919050565b5f82518060208501845e5f92019182525091905056fe360894a13ba1a3210667c828492db98dca3e2076cc3735a920a3ca505d382bbc9b779b17422d0df92223018b32b4d1fa46e071723d6817e2486d003becc55f00a2646970667358221220c8f9c0bef539701fdede3c16e743a6099f6b914c2c5a514021bed9ccdcd9d63264736f6c634300081c0033",
  "linkReferences": {},
  "deployedLinkReferences": {},
  "immutableReferences": {
    "528": [
      {
        "length": 32,
        "start": 2928
      },
      {
        "length": 32,
        "start": 2969
      },
      {
        "length": 32,
        "start": 3293
      }
    ]
  },
  "inputSourceName": "project/contracts/NFTAuctionMarket.sol",
  "buildInfoId": "solc-0_8_28-3c3b395d3fee8869f66a831725ebfa1597e29225"
}